:020000040800F2
:100000007005002001010008491200084111000894
:100010007D1100088D0800089125000800000000EF
:10002000000000000000000000000000611B00084C
:100030002510000800000000491A0008751C00087F
:100040001B0100081B0100081B0100081B01000820
:100050001B0100081B0100081B0100081B01000810
:100060001B0100081B0100081B0100081B01000800
:100070001B0100081B0100081B0100081B010008F0
:100080001B0100081B0100081B0100081B010008E0
:100090006D2500081B0100081B0100081B0100085A
:1000A0001B0100081B0100081B0100081B010008C0
:1000B000151D0008291E0008591F00081B01000813
:1000C0001B0100081B0100081B0100081B010008A0
:1000D0001B010008B12200081B0100081B010008D9
:1000E0001B0100081B0100081B010008DFF80CD0F1
:1000F00000F084FB00480047C92900087005002073
:100100000648804706480047FEE7FEE7FEE7FEE7B1
:10011000FEE7FEE7FEE7FEE7FEE7FEE7B51C0008A8
:10012000ED000008F0B480EA0102D40F4200B2EB07
:10013000410F02D20246084611464A0042D0C30D82
:10014000DDB2C1F3C752AD1A202D35DAC1F3160165
:1001500041F4000204B15242C5F1200602FA06F150
:100160002A411044B3EBD05F23D0C4B1012DA0EBE2
:10017000C35009DCF0BC4FF0004202EAC352DBB2CC
:1001800000F5000000F0AEBA400000F1807000EB16
:10019000C350A0F1807040EAD170490009E04908DD
:1001A00041EAC071A0EBC35000F50000400800EB2D
:1001B000C350F0BC00F08DBA6142012202EB410154
:1001C000001BF6E7F0BC704781F00041AAE780F021
:1001D0000040A7E780EA010210B502F000434000AA
:1001E00022D04A001FD0010E01EB1261C0F356006D
:1001F000C2F3560240F4000042F40002A0FB0220C9
:1002000000047F39140400D0401C50EA124001D48D
:100210004000491EC2B20C0604EBD010401C40083E
:10022000802A02D003E0002010BD20F00100002948
:1002300000DA0020184310BD30B480EA010202F059
:10024000004530F0004221F0004013D090B1C30DC2
:10025000D40DC2F31601C0F31600E41A41F40001F4
:1002600040F400027D34914201D3641C00E0490057
:10027000002C02DA30BC002070474FF4000000234D
:10028000914201D3891A034340084FEA4101F7D153
:1002900051B1914202D14FF0004105E002D24FF03E
:1002A000010101E06FF0010103EBC450284430BCB0
:1002B00000F00FBA2DE9FE4F804681EA0300C00F1F
:1002C0000C46009021F0004123F00045B8EB0200FD
:1002D000A94105D24046214690461C460B4602469F
:1002E00023F00040104347D0270DC7F30A00C3F3A3
:1002F0000A510290401A019040286BDAC3F31300B0
:1003000040F4801B0098924620B10023D2EB030AF0
:1003100063EB0B0B01985946C0F14002504600F0C8
:10032000A7F906460D4650465946019A00F0BFF916
:1003300010EB08006141002487EA115284EAE77358
:100340001A4340D0009A62B3019A012A4FEA075239
:1003500015DC001B61EB02014FF0004202EA07527C
:10036000CDE90042001C41F5801132462B4600F0D9
:10037000F6F903B0BDE8F08F40462146F9E7001BCF
:1003800061EB0201001C41F5801300185B4120184D
:10039000A2F5001747EB030140EAD570B6196D418D
:1003A00011E06D084FEA360645EAC0754FEA07527C
:1003B000001B61EB0201001C41F5801149084FEA66
:1003C00030000019514132462B4603B0BDE8F04FD2
:1003D00000F0B6B90098012240000023D0EB0202E1
:1003E00063EBE073009821464FEAE074B8EB00003D
:1003F00061EB0401E9E783F000435BE781F0004132
:1004000058E72DE9FE4F81EA030404F0004421F08F
:10041000004100944FF0000B23F0004350EA010428
:100420005ED052EA03045BD0C3F30A54C1F30A5509
:100430002C44A4F2F3340194A0FB0254C1F3130141
:1004400041F48011C3F3130343F4801301FB02440E
:1004500000FB034E840A970A44EA815447EA835713
:10046000A4FB076802958D0A05FB07854FEA932CCC
:1004700004FB0C542705029D4FEA065847EA16373D
:10048000B5EB08056EEB070C870E920E47EA811755
:1004900042EA8312A7FB0201B6EB0B0164EB0004F6
:1004A0002B0D43EA0C335E1844EB1C50DA465146E0
:1004B000E7FB0201C5F313044FEA0B3343EA14537D
:1004C0004FEA0432019C43EA0603A4F10C040294AF
:1004D000009CCDE900B400F042F903B0BDE8F08F14
:1004E00000200146F9E7C10F80EAE0700844CA071E
:1004F0009623002100F0F6B80EB5C10F80EAE07037
:100500000844CA07002140F233438DE80E000A4632
:100510000B4600F024F903B000BD00F0004220F0CB
:100520000040C10DC0F3160040F400007F2901DA3D
:1005300000207047962903DCC1F19601C84001E014
:1005400096398840002AF4D04042704770B5C1F314
:100550000A5201F000450024C1F3130140F2FF33B9
:1005600041F480119A4201DA002070BD40F2334319
:100570009A42A2F2334203DC524200F088F800E0D3
:1005800090402C43F1D0404270BD00F0004230F06A
:1005900000400AD0C10D01F56071C0F3160042EAB7
:1005A0000151C208400711437047002001467047BF
:1005B00030B5041E71F1000404DB4FF000444042EA
:1005C00064EB0101141E73F1000405DB1C464FF0BF
:1005D0000043524263EB04038B4208BF824230BDAA
:1005E00030B5041E71F1000404DB4FF000444042BA
:1005F00064EB0101141E73F1000405DB1C464FF08F
:100600000043524263EB0403994208BF904230BD5D
:1006100001F0004330B421F0004150EA010206D05D
:100620000A0DA2F56072C1F31301002A02DC30BC8E
:1006300000207047440F44EAC104C100E01830BCF8
:1006400000EBC25000F045B8002801DBC0F10040CB
:10065000002901DBC1F1004181427047002801DB24
:10066000C0F10040002901DBC1F100418842704720
:10067000202A04DB203A00FA02F100207047914062
:10068000C2F1200320FA03F3194390407047202A57
:1006900004DB203A21FA02F00021704721FA02F32C
:1006A000D040C2F120029140084319467047202AE9
:1006B00006DBCB17203A41FA02F043EAE07306E08A
:1006C00041FA02F3D040C2F120029140084319469A
:1006D00070470029A8BF7047401C490008BF20F0A0
:1006E0000100704710B4B0FA80FC00FA0CF050EA38
:1006F000010404BF10BC704749B1CCF1200421FAB9
:1007000004F411FA0CF118BF012121430843A3EBB3
:100710000C01CB1D4FEA00614FEA102042BF0020C0
:1007200010BC704700EBC35010440029A4BF10BC9C
:100730007047401C490008BF20F0010010BC704702
:1007400010B5141E73F1000408DA401C41F10001D9
:1007500092185B411A4301D120F0010010BD2DE930
:10076000F04D92469B4611B1B1FA81F202E0B0FA27
:1007700080F220329046FFF77BFF04460F4640EAA6
:100780000A0041EA0B0153465A46084313D011466A
:1007900053EA010019D0C8F140025046FFF777FF35
:1007A00005460E46504659464246FFF761FF08434C
:1007B00005D0012004E020463946BDE8F08D002038
:1007C000054346EAE0762C4337430A986305E40A7A
:1007D000A0EB08000022FD0A44EA47540A3002D583
:1007E00000200146E9E7010510196941DDE90845E6
:1007F00000196941BDE8F04DA2E70000064C074D25
:1008000006E0E06840F0010394E8070098471034E0
:10081000AC42F6D3FFF76EFC142A0008342A000815
:1008200008B5482001F028FA4FF4806000F046FD3A
:1008300000F088FC00F0BEFF01F056F80020022313
:1008400008220721009000F023F84FF4165001F021
:100850004DFD0D4802F028F8322002F05DF848F610
:100860009F4140F6B83001F0B1FA48F69F4140F69A
:10087000B83001F041FB47214FF4FA6001F068FC09
:10088000142002F049F808BD8C00002000BFFEE7EC
:100890002DE9F0418AB004460D4616461F46DDF8A4
:1008A00040800121480601F0D1F80121042001F027
:1008B000DDF84FF40060ADF8240048208DF82700E3
:1008C00009A92F4800F0AFFB4FF48050ADF8240089
:1008D00018208DF8270003208DF8260009A9284844
:1008E00000F0A1FB00208DF81E0001208DF81F00F4
:1008F00000208DF8200001208DF8210000208DF8C7
:1009000022008DF823008DF81A808DF81B408DF899
:100910001C608DF81D50ADF8187006A9194800F03C
:100920004EF900208DF812008DF813008DF8140098
:10093000ADF80800ADF80A00ADF80C00ADF80E00F7
:10094000ADF8100001208DF8150002A800F0AAF8FB
:10095000012202210B4800F029F914208DF804002F
:1009600002208DF8050000208DF8060001208DF88A
:10097000070001A800F06AFC0AB0BDE8F0810000A1
:100980000008014000640040F0B585B004460D4603
:100990004FF40070009000208DF808008DF80900D9
:1009A00008208DF80A00200A8DF80B00E1B28DF8BE
:1009B0000C10290A8DF80D10E9B28DF80E100021E7
:1009C0008DF80F108DF810108DF811108DF8121091
:1009D0006946094800F0F5F90746002601E0701C59
:1009E00086B23946044800F07FFA18B940F6FF7025
:1009F0008642F4DB05B0F0BD00640040B1F5007F35
:100A00003AD00FDC202928D006DC01291CD004298B
:100A10001DD0082940D11DE0402921D0B1F5807FAB
:100A20003AD126E0B1F5004F31D006DCB1F5806F48
:100A300025D0B1F5006F2FD124E0B1F5803F12D061
:100A4000B1F5003F28D111E0154A826025E0082267
:100A5000C26022E01022C2601FE0082202611CE096
:100A60001022026119E00822426016E01022426062
:100A700013E00422426010E0042242600DE00422F0
:100A800042600AE0002282610422426005E0002206
:100A900082610422426000E000BF00BF7047000096
:100AA0000101010010B50021837A012202FA03F14D
:100AB0003D4A126842F001023B4B1A603A4A1C322E
:100AC00012688A43384B1C331A60027BCAB9364A13
:100AD0000C3212688A43344B0C331A604288C38844
:100AE00042EA0343304A4032847A42F83430028882
:100AF000838842EA03432C4A4032847A02EBC402E0
:100B00005360027B012A19D1274A0C3212680A432A
:100B1000254B0C331A604288038842EA0343224A79
:100B20004032847A42F83430C288838842EA0343F0
:100B30001D4A4032847A02EBC4025360C27A3AB949
:100B4000194A121D12688A43174B1B1D1A6006E0D2
:100B5000154A121D12680A43134B1B1D1A600289A5
:100B600032B9114A143212688A430F4B14331A6097
:100B70000289012A06D10C4A143212680A430A4B30
:100B800014331A60427B012A06D1074A1C321268CC
:100B90000A43054B1C331A60034A126822F0010213
:100BA000014B1A6010BD0000006600401AB1436995
:100BB0000B43436102E043698B434361704730B5A7
:100BC000024600200023146824F002041460146814
:100BD00044F00104146000E05B1C546804F001045C
:100BE0001CB94FF6FF74A342F6D1546804F0010417
:100BF0000CB900206CE08C79012C04D1146844F00D
:100C00008004146003E0146824F080041460CC793C
:100C1000012C04D1146844F04004146003E014680B
:100C200024F0400414600C7A012C04D1146844F0C0
:100C30002004146003E0146824F0200414604C7A4B
:100C4000012C04D1146844F01004146003E014680B
:100C500024F0100414608C7A012C04D1146844F040
:100C60000804146003E0146824F008041460CC7ACB
:100C7000012C04D1146844F00404146003E01468E7
:100C800024F0040414608C78A407CD7844EA056449
:100C90000D7944EA05444D7944EA05540D886D1EEA
:100CA0002C43D461146824F001041460002300E094
:100CB0005B1C546804F001041CB14FF6FF74A3429E
:100CC000F6D1546804F001040CB1002000E00120CA
:100CD00030BD10B500F5D87303EB01131B6803F0AA
:100CE00004031372137A53B900F5D87303EB01139D
:100CF0001B6840F2FF7404EA5353136009E000F5E7
:100D0000D87303EB01131B686FF0604404EAD3034C
:100D1000536000F5D87303EB01131B6803F0020363
:100D2000537200F5D87303EB01135B6803F00F03F4
:100D3000937200F5D87303EB01135B681B0AD3743D
:100D400000F5D87303EB01139B68D37200F5D873D9
:100D500003EB01139B681C0A147300F5D87303EBB3
:100D600001139B681C0C547300F5D87303EB01133B
:100D70009B681B0E937300F5D87303EB0113DB68BC
:100D8000D37300F5D87303EB0113DB681C0A1474EA
:100D900000F5D87303EB0113DB681C0C547400F5E9
:100DA000D87303EB0113DB681B0E937421B9C3687E
:100DB00043F02003C36003E0036943F020030361B1
:100DC00010BD10B502460020936803F08063B3F1B4
:100DD000806F00D110E0936803F00063B3F1006FFF
:100DE00001D1012008E0936803F08053B3F1805FE4
:100DF00001D1022000E00420042874D002F5C07361
:100E000003EB00131B6803F0010402F5C07303EB4E
:100E100000131C600B7A7BB94B7A0C8843EA44536D
:100E200002F5C07404EB00142468234302F5C07477
:100E300004EB0014236010E00B7A4C6843EAC4030F
:100E40004C7A234302F5C07404EB00142468234356
:100E500002F5C07404EB001423608B7A03F00F03D7
:100E60008B7202F5C07303EB00135B6823F00F0471
:100E700002F5C07303EB00135C6002F5C07303EB73
:100E800000135B688C7A234302F5C07404EB0014F2
:100E900063608B7B1C064B7B44EA03440B7B44EA78
:100EA0000323CC7A234302F5C07404EB0014A3603F
:100EB0008B7C1C064B7C44EA03440B7C44EA0323F2
:100EC000CC7B234302F5C07404EB0014E36002F50D
:100ED000C07303EB00131B6843F0010402F5C073F9
:100EE00003EB00131C6010BD10B50246002321B1B6
:100EF000012907D002290FD109E090681D4C00EAB2
:100F000004030BE090681C4C00EA040306E09068C0
:100F10001A4C00EA040301E0002300BF00BF184C94
:100F2000181BA34216D007DC83B16FF08060184411
:100F300070B1022818D111E0B0F5007F10D0114C2B
:100F4000204448B1B0F5003F0ED10BE002230DE084
:100F500000230BE0002309E0002307E0012305E064
:100F6000012303E0012301E0002300BF00BFD8B24A
:100F700010BD00000300000400030008000003107F
:100F8000000100080001FFF70168A1F2012111B181
:100F9000012940D100E000BF0178491E1F4A1170AD
:100FA0001146097801EB81011D4A32F8111009B28E
:100FB0001A4A127802EB8202194B03EB42021181AA
:100FC000017BC27A41EA0221144A127802EB8202C2
:100FD00023F81210827B417B42EA012109B20F4AB9
:100FE000127802EB820203EB42025180027CC17B49
:100FF00042EA012109B2094A127802EB820203EBAC
:1010000042029180417C054A127802EB820203EB96
:101010004202917100E000BF00BF70470000002055
:101020006400002070472DE9F041024600250026AB
:10103000002000230024002791F803C00CF00F05C6
:1010400091F803C00CF0100CBCF1000F03D091F824
:1010500002C04CEA050591F800C0BCF1000F31D088
:10106000146800202BE04FF0010C0CFA00F3B1F8EB
:1010700000C00CEA03069E4220D183004FF00F0C03
:101080000CFA03F7BC4305FA03FC4CEA040491F89C
:1010900003C0BCF1280F06D14FF0010C0CFA00FC84
:1010A000C2F814C00AE091F803C0BCF1480F05D1A2
:1010B0004FF0010C0CFA00FCC2F810C0401C0828CC
:1010C000D1D31460B1F800C0BCF1FF0F34DD546817
:1010D00000202EE000F1080C4FF0010808FA0CF394
:1010E000B1F800C00CEA03069E4221D183004FF004
:1010F0000F0C0CFA03F7BC4305FA03FC4CEA04049A
:1011000091F803C0BCF1280F05D100F1080C08FAD2
:101110000CF8C2F8148091F803C0BCF1480F07D155
:1011200000F1080C4FF0010808FA0CF8C2F8108022
:10113000401C0828CED35460BDE8F081016170479F
:1011400000BFFEE708B50121102000F08FFC4FF42E
:101150006040ADF8000010208DF8030003208DF8EA
:10116000020069460448FFF75EFF4FF46041024801
:10117000FFF7E4FF08BD00000010014000BFFEE7DC
:1011800070B50446E069FFF7C8F90546A068FFF7A7
:10119000C4F9061E01DB304600E07042002D01DB81
:1011A000294600E0694288420ADDA068FFF7B5F9E8
:1011B0001F490860E069FFF7B0F91E4908601CE0AC
:1011C000E069FFF7AAF90546A068FFF7A6F9061E31
:1011D00001DB304600E07042002D01DB294600E0D3
:1011E0006942884209DAE069FFF797F91049086017
:1011F000A068FFF792F90F4908600D4909680D4A88
:1012000012688818FFF76FF90B49C8600B4808602F
:101210000B4848604FF07F508860084600F044F962
:1012200005494869FFF779F90649086070BD000073
:10123000080000200C000020440100200000204095
:10124000CDCC4C3E100000207047000070B500214E
:1012500000230F22C47804B3154C246804F4E0641E
:10126000C4F5E064210AC1F10403CA40447804FAD9
:1012700003F184781440214309010E4C0678A155EE
:10128000047804F01F050124AC4005786D11AD0011
:1012900005F1E025C5F8004109E0047804F01F05D8
:1012A0000124AC40044D0678761145F8264070BD07
:1012B0000CED00E000E400E080E100E002490143C1
:1012C000024A1160704700000000FA050CED00E0D2
:1012D0002DE9FC5F0446894692469B4614B90020DE
:1012E000BDE8FC9F216C6164E16B2164C4F818A027
:1012F000C4F81C9049465046FEF766FFE06320782C
:1013000000284DD1E16B6068FEF764FF6062E16B1D
:10131000A068FEF75FFF0546A16AFEF703FFA06223
:10132000616BA163216B6163D4E90F01FEF74CFF90
:101330002063216BE068FEF74DFFE0626169A06AFF
:10134000FFF78CF902D26069A0620BE0606980F05F
:1013500000452846A16AFFF781F903D2606980F051
:101360000040A062D4E90901FEF7DCFE0546E16A0F
:10137000FEF7D8FE20622169206AFFF76FF902D2DA
:101380002069206287E0206980F000452846216AB4
:10139000FFF764F97FD2206980F0004020627AE094
:1013A0002078012877D1D4E90F01FEF70DFF05461B
:1013B0006168FEF70FFF60625046FFF7E6F80746E8
:1013C0004FF06632354BFFF71CF805460E4648468F
:1013D000FFF7DBF82A463346CDE90001FFF700F9B5
:1013E00016D9BBF1010F13D05046FFF7CEF80546D2
:1013F0002B4A2C4BFFF705F8074688464846FFF76F
:10140000C4F83A464346CDE90001FFF7D1F805D8C4
:10141000E16BA068FEF7DEFEA06204E0E16BA0686D
:10142000FEF7D8FEA062616BA163216B61634FF090
:101430008040216CFEF7CEFE0646E16BFEF7C7FE4C
:101440000546616CFEF76EFE2063216BE068FEF7D7
:10145000C1FEE062D4E90901FEF764FE0646E16AD6
:10146000FEF760FE0546216AFEF75CFE20622169F8
:10147000206AFFF7F3F802D2206920620BE02069AE
:1014800080F000452846216AFFF7E8F803D220697A
:1014900080F000402062206A22E700006666E63F96
:1014A000CDCCCCCCCCCCF43F2DE9F05F0446002170
:1014B0002068FFF7C9F803D2206880F00040206060
:1014C00000216068FFF7C0F803D2606880F0004038
:1014D00060600021A068FFF7B7F803D2A06880F031
:1014E0000040A060A169E068FEF76EFE8046E568F6
:1014F0004FF08040A169FEF76DFE8146E168FEF77E
:1015000066FE0746E169FEF70DFE0646A069E0614A
:10151000E068A0613146A068FEF75CFE814629467E
:101520006068FEF757FE824641462068FEF752FE8D
:1015300083465146FEF7F6FD07464946FEF7F2FDA3
:10154000206100212068FFF77FF80CD1002160683E
:10155000FFF77AF807D10021A068FFF775F802D1EC
:101560000020606104E0D4E90410FEF7DBFD606157
:10157000BDE8F09F70B5049C00B102B970BD017068
:1015800015684560556885609568C560036144616C
:1015900000268663466306630662C662866246620A
:1015A00046640664C66300BFE8E770B505460024DC
:1015B00000BF09E004EBC40205F1280101EBC20001
:1015C00000F005F8601CC4B2022CF3DB70BD00B95A
:1015D0007047002242640264C26382634263026312
:1015E0000021C1628162416201628161C16100BF0B
:1015F000EEE7000001460148405C704764010020AE
:10160000002004E00021034A1154411CC8B20928FB
:10161000F8DB70476401002038B5044601200090D3
:1016200000201E494870012000902EE0BDF8000007
:10163000204018B101201A49086002E00020184932
:1016400008600120164908310860052001F08AF978
:1016500000201449C1F8BC01052001F083F90120E4
:101660001049C1F8BC010846D0F8300130B10B4830
:101670004078BDF80010084308494870BDF80000E4
:101680004FF6FF7101EA40000090BDF80000FF280E
:10169000CCDD102001F066F938BD000064010020A7
:1016A000B48121420080214210B5FFF7A9FF00F06C
:1016B000A1F80F48C0780E49097940EA01200D4988
:1016C000088000240FE00C4810F81400401E01218F
:1016D00001FA00F007490988084010B9601CC0B23F
:1016E00010BD601CC4B2102CEDDB0020F8E7000038
:1016F00064010020280000202C00002010B50020EC
:1017000013490860102001F02DF90120FFF784FF34
:101710004320FFF781FF0020FFF77EFF0120FFF746
:101720007BFF0020FFF778FF0020FFF775FF002008
:10173000FFF772FF0020FFF76FFF0020FFF76CFF3D
:1017400001200449C1F8B801102001F00BF910BDC7
:10175000B88121420080214210B500201349086061
:10176000102001F0FFF80120FFF756FF4320FFF79C
:1017700053FF0020FFF750FF0020FFF74DFF5A20D6
:10178000FFF74AFF5A20FFF747FF5A20FFF744FFB1
:101790005A20FFF741FF5A20FFF73EFF012004497E
:1017A000C1F8B801102001F0DDF810BDB881214268
:1017B0000080214208B50121082000F057F94FF4BC
:1017C0008050ADF8000048208DF8030003208DF80C
:1017D00002004FF46040ADF8000010208DF80300C7
:1017E00003208DF8020069460148FFF71CFC08BD84
:1017F000000C01401CB50020019001200090002049
:101800002549086025490878FFF706FF23494878ED
:10181000FFF702FF0220019036E00120009027E050
:1018200001201D49091D0860052001F09BF80020DA
:101830001B49C1F8BC01052001F094F801201849AA
:10184000C1F8BC010846D0F8300150B115489DF8E8
:101850000410405CBDF80010084312499DF80420B4
:101860008854BDF800004FF6FF7101EA4000009077
:10187000BDF80000FF28D3DD102001F073F89DF8BB
:101880000400401CC0B201909DF804000928C4DB8C
:101890000120014908601CBDB88121422A000020B6
:1018A000008021426401002010B500200A49086030
:1018B0000A490878FFF7B0FE08494878FFF7ACFE00
:1018C00001200749C1F8B80106484078732801D1C2
:1018D000002010BD0120FCE7B88121422A00002031
:1018E000008021426401002010B500F00DF800F0E6
:1018F0000BF800F009F8FFF701FF00F027F800F0FF
:1019000081F8FFF729FF10BD10B500200D490860D0
:10191000102001F027F80120FFF77EFE4220FFF79C
:101920007BFE0020FFF778FE0020FFF775FE002009
:10193000FFF772FE01200449C1F8B801102001F040
:1019400011F810BDB88121420080214210B500205D
:10195000124908600120FFF75FFE4420FFF75CFE9C
:101960000020FFF759FE0120FFF756FEEE20FFF79B
:1019700053FE0020FFF750FE0020FFF74DFE002031
:10198000FFF74AFE0020FFF747FE01200449C1F897
:10199000B801102000F0E6FF10BD0000B881214220
:1019A0000080214270B505460C46002013490860AE
:1019B000102000F0D7FF0120FFF72EFE4220FFF796
:1019C0002BFE0020FFF728FE2846FFF725FE2046C5
:1019D000FFF722FE0020FFF71FFE0020FFF71CFE8E
:1019E0000020FFF719FE0020FFF716FE0120044932
:1019F000C1F8B801102000F0B5FF70BDB8812142D8
:101A00000080214210B500200D490860102000F030
:101A1000A9FF0120FFF700FE4D20FFF7FDFD00208C
:101A2000FFF7FAFD0020FFF7F7FD0120FFF7F4FDB7
:101A300001200449C1F8B801102000F093FF10BD47
:101A4000B8812142008021427047000029B1064A36
:101A5000D2690243044BDA6104E0034AD26982434B
:101A6000014BDA61704700000010024029B1064ABC
:101A700092690243044B9A6104E0034A92698243EB
:101A8000014B9A61704700000010024030B5002100
:101A90000022002400232D4D6D6805F00C0121B1BA
:101AA000042905D0082923D105E0294D056022E04D
:101AB000274D05601FE0254D6D6805F47012234D1C
:101AC0006D6805F48034022505EB92421CB9214D66
:101AD000554305600BE01D4D6D6805F400351DB1E3
:101AE0001C4D5543056002E0194D5543056002E069
:101AF000174D056000BF00BF144D6D6805F0F00183
:101B00000909154D6B5C0568DD4045600F4D6D683A
:101B100005F4E061090A104D6B5C4568DD408560A5
:101B20000A4D6D6805F46051C90A0B4D6B5C456840
:101B3000DD40C560054D6D6805F44041890B074DDA
:101B40006B5CC568B5FBF3F5056130BD0010024064
:101B500000127A0000093D005000002060000020C3
:101B6000704710B500F002F810BD00000CB5002061
:101B7000019000903348006840F48030314908609B
:101B800000BF3048006800F4003000900198401C0D
:101B90000190009818B90198B0F5A06FF1D12948CB
:101BA000006800F4003010B10120009001E0002036
:101BB00000900098012843D12348006840F01000AD
:101BC000214908600846006820F0030008600846C4
:101BD000006840F0020008601A48406819494860EF
:101BE0000846406848600846406840F480604860A5
:101BF0000846406820F47C1048600846406840F47D
:101C0000E81048600846006840F08070086000BF37
:101C10000C48006800F000700028F9D009484068BE
:101C200020F00300074948600846406840F0020081
:101C3000486000BF0348406800F00C000828F9D154
:101C40000CBD00000010024000200240042808D112
:101C50004FF0E021096941F004014FF0E0221161E9
:101C600007E04FF0E021096921F004014FF0E02284
:101C7000116170477047000010B504466FF0040012
:101C8000FFF7E4FFE11704EB5171C1F3C701074A05
:101C900011701046007800EB4001C1EBC0104FF608
:101CA000FF7101EAC0000249088010BD4C0000200D
:101CB0004E00002010B51348006840F001001149A3
:101CC000086008464068104908400E4948600846C8
:101CD00000680E4908400B4908600846006820F477
:101CE000802008600846406820F4FE0048604FF4F9
:101CF0001F008860FFF735FF4FF00060044908605F
:101D000010BD0000001002400000FFF8FFFFF6FECB
:101D100008ED00E02DE9FC470121880700F05BFA9F
:101D2000002845D025498868FEF7F7FBB0F1000987
:101D300001DBCA4601E0C9F1000A2049C868FEF784
:101D400024FC4FF033321E4BCDE90001FEF759FB66
:101D50000746FEF7FBFB061E01DB304600E0704243
:101D600082451EDC15498868FEF7D7FB051E01DB9E
:101D7000AA4601E0C5F1000A1049C868FEF705FC53
:101D800007464FF066320F4BFEF73BFBCDE90001F3
:101D9000FEF7DCFB041E01DB204600E060428245CA
:101DA00003DA00200849087002E0012006490870A3
:101DB0000121880700F000FABDE8FC878C000020B4
:101DC0003333E33F6666F63F040000207FB50546E7
:101DD0000C4601210846FFF739FEADF80850ADF872
:101DE00004400020ADF80A00ADF8060001A94FF04C
:101DF000804000F00BFA01221146900700F0FCF938
:101E00000121880700F0D8F91C208DF8000003207C
:101E10008DF8010000208DF8020001208DF80300EC
:101E20006846FFF713FA7FBD2DE9FC4701212C48D6
:101E300000F0D1F900284DD02A48006808B90120E7
:101E400000E00020274908602749C869FEF765FBC4
:101E5000B0F1000901DBCA4601E0C9F1000A2249DC
:101E6000086AFEF792FB4FF03332204BCDE90001B8
:101E7000FEF7C7FA0746FEF769FB061E01DB304690
:101E800000E0704282451EDC1749C869FEF745FB39
:101E9000051E01DBAA4601E0C5F1000A1249086AE5
:101EA000FEF773FB07464FF06632114BFEF7A9FAB7
:101EB000CDE90001FEF74AFB041E01DB204600E0ED
:101EC0006042824503DA00200A49487002E001209E
:101ED000084948700121024800F06EF9BDE8FC870E
:101EE00000040040BC0122428C0000203333E33F59
:101EF0006666F63F040000207FB505460C460121CA
:101F00000220FFF7A3FDADF80850ADF80440002013
:101F1000ADF80A00ADF8060001A90E4800F076F908
:101F2000012211460B4800F067F90121094800F031
:101F300043F91D208DF8000003208DF801000020DA
:101F40008DF8020001208DF803006846FFF77EF946
:101F50007FBD0000000400402DE9F04F87B04FF036
:101F6000000A0121734800F036F9002879D0724840
:101F7000006808B9012000E000206F490860FFF701
:101F800093FB8246BAF1000F6CD0FFF78DFC00285E
:101F900068D1BAF10B0F73D10820FFF72BFBA0F12A
:101FA0007F04251E01DB294600E069420846FEF752
:101FB0009AFA83464FF08641FEF73EF90746052020
:101FC000FFF718FB803800EBC00101EB001B5846FF
:101FD000FEF789FA80463946FEF7FCF80646FEF71A
:101FE0009CFA0FFA80F90820FFF704FB7F38C0EB5A
:101FF000001047003846FEF77FFACDE904010820BB
:10200000FFF7F8FAA0F17F0B0820FFF7F3FA7F380B
:102010000BFB00FB5846CDF804B0FEF76DFA0746FF
:10202000464A474BFEF7EDF9CDE90201DDE904230D
:10203000FEF740F90546FEF7EBFA4249086008460C
:102040000068FEF76AFA404204B264B9B9F1000FC1
:1020500009D100203C49086048603C48FFF7A5FAD8
:102060004DE05FE044E0002C14DDB9F1000F08DA28
:1020700004EB090034490860E043401C48603EE03E
:102080001EE031480460A4EB0900C043401C2E4907
:10209000486034E0002C32DAB9F1000F07DAA4EB23
:1020A000090029490860E043401C486027E02648B1
:1020B000046004EB0900C043401C234948601EE053
:1020C00000202149086048602048FFF76EFABAF105
:1020D0000C0F08D1FF210020FFF764FC4FF4FA70C9
:1020E00000F01AFC0BE000210846FFF75BFC06E05D
:1020F00000201549086048601448FFF756FA134855
:1021000000F0ACFB1148FFF73BF8142000F004FC92
:102110000E4800F04FFA0D4AB2F92410B2F910003F
:10212000FEF732FC0121034800F046F807B0BDE895
:10213000F08F000000080040B8012242C1CAA1454A
:10214000B6F3BDBF14000020200000208C0000204A
:102150007FB505460C4601210420FFF777FCADF85A
:102160000850ADF804400020ADF80A00ADF80600B4
:1021700001A9104800F04AF8012211460D4800F06C
:102180003BF801210B4800F017F81E208DF80000E5
:1021900001208DF8010000208DF8020001208DF84B
:1021A00003006846FFF752F80121024800F007F8E3
:1021B0007FBD000000080040CA430282704721B181
:1021C000028842F00102028004E002884FF6FE73AA
:1021D0001A400280704730B50246002000230024D8
:1021E000158A05EA0103958905EA010413B10CB1CA
:1021F000012000E0002030BD1AB183890B438381A8
:1022000002E083898B4383817047000000220288AB
:102210001D4B98420ED01D4B98420BD0B0F1804F11
:1022200008D01B4B984205D01A4B984202D01A4B4B
:10223000984204D14FF68F731A404B881A43174BBC
:10224000984207D0164B984204D04FF6FF431A40ED
:10225000CB881A4302808B8883850B8803850A4BC1
:1022600098420BD0094B984208D00E4B984205D0AB
:102270000D4B984202D00D4B984201D10B7A038648
:102280000123838270470000002C0140003401408C
:102290000004004000080040000C00400010004016
:1022A000001400400040014000440140004801404B
:1022B00010B540F225510C4800F092F870B10A4870
:1022C00000F04AF9C4B22146074800F04AF900BFBD
:1022D0004021054800F077F80128F9D14021024853
:1022E00000F05CF810BD00000038014010B586B069
:1022F000044601210420FFF7B9FB01218803FFF701
:10230000B5FB4FF40070ADF8140003208DF81600F3
:1023100018208DF8170005A91E48FEF784FE4FF41B
:102320008060ADF8140004208DF8170005A9194845
:10233000FEF779FE01940020ADF80800ADF80A0020
:10234000ADF80C00ADF810000C20ADF80E0001A99E
:10235000114800F095F801210F4800F028F84021BD
:102360000D4800F01BF8012240F225510A4800F008
:1023700061F825208DF8000003208DF801008DF80C
:10238000020001208DF803006846FEF75FFF06B0EB
:1023900010BD0000000801400038014001F4007247
:1023A000B2F5007F00D100BFCA430280704721B15F
:1023B000828942F40052828104E082894DF6FF73E3
:1023C0001A408281704702460020B1F5007F00D19B
:1023D00000BF13880B400BB1012000E000207047C4
:1023E00070B50246002400230025002040F66A163E
:1023F000B14200D100BFC1F3421501F01F03012615
:1024000006FA03F3012D02D19689334006E0022D2E
:1024100002D1168A334001E0968A33400C1201261D
:1024200006FA04F41688344013B10CB1012000E020
:10243000002070BDF0B503460024002600250020D2
:1024400040F66A17B94200D100BF1846C1F34214E2
:1024500001F01F06012707FA06F5012C01D10C3007
:1024600004E0022C01D1103000E014301AB10768EA
:102470002F43076002E00768AF430760F0BD00002C
:102480002DE9F04786B005460E460024A24600BF5F
:10249000A1460027B08900B100BF2F462C8A4CF618
:1024A000FF700440F08804432C82AC894EF6F31090
:1024B0000440B08831890843718908430443AC81E2
:1024C000AC8A4FF6FF400440B0890443AC8201A8B7
:1024D000FFF7DCFA1F48874202D1DDF810A001E0C7
:1024E000DDF80CA0A88900F4004040B10AEBCA0056
:1024F00000EB0A1031684900B0FBF1F807E00AEB85
:10250000CA0000EB0A1031688900B0FBF1F86420C2
:10251000B8FBF0F004012009642101FB1089A889AF
:1025200000F4004040B1322000EBC900B0FBF1F0F4
:1025300000F00700044308E0322000EB091064219A
:10254000B0FBF1F000F00F0004432C8106B0BDE8B1
:10255000F08700000038014001468888C0F3080079
:102560007047C1F3080282807047000010B5022155
:102570000548FEF743FA054A00210348FEF7A9FB88
:102580000248FEF701FD10BD006400407800002005
:1025900000BFFEE702E008C8121F08C1002AFAD1F6
:1025A00070477047002001E001C1121F002AFBD1D3
:1025B000704700002DE9FF5F0446002500BF0BE0D7
:1025C000A04951F82500FDF78EFF05EB850104EBCE
:1025D0008101C860681CC5B2022DF1DBE068FDF71F
:1025E0009CFFB0F1000B01DB594601E0CBF100018B
:1025F0000846FDF781FF07464FF03332924BFDF757
:1026000000FFCDE90201A068FDF787FFB0F1000AE5
:1026100001DB514601E0CAF100010846FDF76CFFFD
:10262000CDE90001DDE90223FDF7DAFF26D3E068FA
:10263000FDF773FF061E01DB314600E071420846DC
:10264000FDF75AFF4FF06632804BCDE90001FDF7F0
:10265000D8FECDE90201A068FDF75FFFB0F10009E7
:1026600001DB494601E0C9F100010846FDF744FFDE
:102670000746DDE90223FDF79BFF08D200214FF05A
:102680008040FFF79CFD00207149087003E00121A4
:102690008807FFF794FD206AFDF73FFFB0F1000BBC
:1026A00001DB594601E0CBF100010846FDF724FFAC
:1026B00007464FF03332644BFDF7A3FECDE902012C
:1026C000E069FDF72AFFB0F1000A01DB514601E0A5
:1026D000CAF100010846FDF70FFFCDE90001DDE971
:1026E0000223FDF77DFF26D3206AFDF716FF061EA5
:1026F00001DB314600E071420846FDF7FDFE07466A
:102700004FF06632514BFDF77CFECDE90201E069E6
:10271000FDF703FFB0F1000901DB494601E0C9F113
:1027200000010846FDF7E8FECDE90001DDE90223DE
:10273000FDF73EFF07D200214648FFF740FD00208D
:102740004349487003E001214248FFF738FD002566
:1027500015E03F4E735D05EB850604EB8606F268D7
:1027600005EB850604EB860605EBC507B16804F1A9
:10277000280606EBC700FEF7ABFD681CC5B2022DAC
:10278000E7DB304800682F494968884243D12D482B
:10279000006818B32B48406800B32046FEF7F0FCF1
:1027A000E069FDF7BAFE0646A068FDF7B6FE071E13
:1027B00001DB384600E07842002E01DB314600E0C4
:1027C000714288420BDD24480068FDF78CFE064606
:1027D000D4F89010FDF7FBFCC4F890001BE0E06912
:1027E000FDF79BFE0646A068FDF797FE071E01DB7E
:1027F000384600E07842002E01DB314600E07142AD
:10280000884208DA14480068FDF76DFE0646A16CA0
:10281000FDF7DDFCA064002510E005EBC50204F126
:10282000280101EBC201086AFDF777FE00B205EB53
:10283000850104EB81010882681CC5B2022DECDB26
:10284000BDE8FF9F200000203333E33F6666F63F7C
:1028500004000020000400401000002070B5044671
:10286000002504B970BD00251AE005EB850154F878
:102870002110B1F90200FDF736FE05EB850104EBEE
:102880008101886005EBC50104F1280000EBC1005F
:10289000006B05EB850104EB81014860681CC5B243
:1028A000022DE2DB00BFDDE738B5044604B938BDD0
:1028B000002510E0284600F07BF805EB850144F880
:1028C000210005EBC50204F1280101EBC200FEF76F
:1028D0007EFE681CC5B2022DECDB0B480B4B0C4A8C
:1028E0000121009004F12800FEF744FE0648074B42
:1028F000084A0121009004F17000FEF73BFE2046DB
:10290000FFF7ACFF00BFD2E70000FA4400007A46B0
:10291000FC290008082A00080146114A12884A4387
:102920004FF0E0235A6100229A611A46126942F080
:1029300001021A6100BF4FF0E022106900F00102AD
:102940001AB100F48032002AF5D04FF0E02212696B
:1029500022F001024FF0E0231A6100229A617047D1
:102960004E0000200146114A12784A434FF0E023FE
:102970005A6100229A611A46126942F001021A61F4
:1029800000BF4FF0E022106900F001021AB100F41C
:102990008032002AF5D04FF0E022126922F00102C5
:1029A0004FF0E0231A6100229A6170474C0000202A
:1029B000014601F0010000EB8000024A02EB4000FA
:1029C00070470000640000200024FDF729FF12E09A
:1029D000601CC4B2142094FBF0F100FB114038B924
:1029E0000548006808B9012000E00020024908609D
:1029F0000A20FFF791FFEBE7B40122423333034093
:102A00008FC2F53C0AD7A33D333303408FC2F53C58
:102A10009A99993E342A00080000002064000000C2
:102A200094250008982A0008640000200C05000086
:102A3000A4250008000000000000000000000000C5
:102A40000000000000000000000000000000000086
:102A50000000000000000000000000000000014233
:102A60000100020003000400050006000700080042
:102A700009000A000B000C000D000E000F001000F2
:102A80000000000000000000010203040102030432
:082A900006070809020406080C
:04000005080000ED02
:00000001FF
